{
  "_format": "hh-sol-artifact-1",
  "contractName": "test",
  "sourceName": "contracts/test.sol",
  "abi": [
    {
      "inputs": [],
      "stateMutability": "nonpayable",
      "type": "constructor"
    },
    {
      "inputs": [],
      "name": "getSignatureHash",
      "outputs": [
        {
          "internalType": "string",
          "name": "",
          "type": "string"
        }
      ],
      "stateMutability": "view",
      "type": "function"
    },
    {
      "inputs": [],
      "name": "getUserAddress",
      "outputs": [
        {
          "internalType": "address",
          "name": "",
          "type": "address"
        }
      ],
      "stateMutability": "view",
      "type": "function"
    },
    {
      "inputs": [],
      "name": "getUserCount",
      "outputs": [
        {
          "internalType": "uint256",
          "name": "",
          "type": "uint256"
        }
      ],
      "stateMutability": "view",
      "type": "function"
    },
    {
      "inputs": [
        {
          "internalType": "address",
          "name": "addr",
          "type": "address"
        }
      ],
      "name": "getUserName",
      "outputs": [
        {
          "internalType": "string",
          "name": "",
          "type": "string"
        }
      ],
      "stateMutability": "view",
      "type": "function"
    },
    {
      "inputs": [
        {
          "internalType": "string",
          "name": "_username",
          "type": "string"
        },
        {
          "internalType": "string",
          "name": "_sign",
          "type": "string"
        }
      ],
      "name": "regUser",
      "outputs": [],
      "stateMutability": "nonpayable",
      "type": "function"
    },
    {
      "inputs": [],
      "name": "usercount",
      "outputs": [
        {
          "internalType": "uint256",
          "name": "",
          "type": "uint256"
        }
      ],
      "stateMutability": "view",
      "type": "function"
    }
  ],
  "bytecode": "0x608060405234801561001057600080fd5b5060008081905550610de6806100276000396000f3fe608060405234801561001057600080fd5b50600436106100625760003560e01c80630f322c1e146100675780631ffed89214610085578063b5cb15f7146100a1578063c127ae41146100bf578063d84f55ee146100dd578063ebc3eee81461010d575b600080fd5b61006f61012b565b60405161007c9190610640565b60405180910390f35b61009f600480360381019061009a91906107b5565b610131565b005b6100a961033e565b6040516100b69190610640565b60405180910390f35b6100c7610347565b6040516100d491906108ac565b60405180910390f35b6100f760048036038101906100f2919061092c565b6104e9565b60405161010491906108ac565b60405180910390f35b6101156105bd565b6040516101229190610968565b60405180910390f35b60005481565b600073ffffffffffffffffffffffffffffffffffffffff16600160003373ffffffffffffffffffffffffffffffffffffffff1673ffffffffffffffffffffffffffffffffffffffff16815260200190815260200160002060020160009054906101000a900473ffffffffffffffffffffffffffffffffffffffff1673ffffffffffffffffffffffffffffffffffffffff1614610202576040517f08c379a00000000000000000000000000000000000000000000000000000000081526004016101f9906109cf565b60405180910390fd5b60008081548092919061021490610a1e565b919050555081600160003373ffffffffffffffffffffffffffffffffffffffff1673ffffffffffffffffffffffffffffffffffffffff16815260200190815260200160002060000190816102689190610c72565b5080600160003373ffffffffffffffffffffffffffffffffffffffff1673ffffffffffffffffffffffffffffffffffffffff16815260200190815260200160002060010190816102b89190610c72565b5033600160003373ffffffffffffffffffffffffffffffffffffffff1673ffffffffffffffffffffffffffffffffffffffff16815260200190815260200160002060020160006101000a81548173ffffffffffffffffffffffffffffffffffffffff021916908373ffffffffffffffffffffffffffffffffffffffff1602179055505050565b60008054905090565b6060600160003373ffffffffffffffffffffffffffffffffffffffff1673ffffffffffffffffffffffffffffffffffffffff16815260200190815260200160002060020160009054906101000a900473ffffffffffffffffffffffffffffffffffffffff1673ffffffffffffffffffffffffffffffffffffffff163373ffffffffffffffffffffffffffffffffffffffff1614610419576040517f08c379a000000000000000000000000000000000000000000000000000000000815260040161041090610d90565b60405180910390fd5b600160003373ffffffffffffffffffffffffffffffffffffffff1673ffffffffffffffffffffffffffffffffffffffff168152602001908152602001600020600101805461046690610a95565b80601f016020809104026020016040519081016040528092919081815260200182805461049290610a95565b80156104df5780601f106104b4576101008083540402835291602001916104df565b820191906000526020600020905b8154815290600101906020018083116104c257829003601f168201915b5050505050905090565b6060600160008373ffffffffffffffffffffffffffffffffffffffff1673ffffffffffffffffffffffffffffffffffffffff168152602001908152602001600020600001805461053890610a95565b80601f016020809104026020016040519081016040528092919081815260200182805461056490610a95565b80156105b15780601f10610586576101008083540402835291602001916105b1565b820191906000526020600020905b81548152906001019060200180831161059457829003601f168201915b50505050509050919050565b6000600160003373ffffffffffffffffffffffffffffffffffffffff1673ffffffffffffffffffffffffffffffffffffffff16815260200190815260200160002060020160009054906101000a900473ffffffffffffffffffffffffffffffffffffffff16905090565b6000819050919050565b61063a81610627565b82525050565b60006020820190506106556000830184610631565b92915050565b6000604051905090565b600080fd5b600080fd5b600080fd5b600080fd5b6000601f19601f8301169050919050565b7f4e487b7100000000000000000000000000000000000000000000000000000000600052604160045260246000fd5b6106c282610679565b810181811067ffffffffffffffff821117156106e1576106e061068a565b5b80604052505050565b60006106f461065b565b905061070082826106b9565b919050565b600067ffffffffffffffff8211156107205761071f61068a565b5b61072982610679565b9050602081019050919050565b82818337600083830152505050565b600061075861075384610705565b6106ea565b90508281526020810184848401111561077457610773610674565b5b61077f848285610736565b509392505050565b600082601f83011261079c5761079b61066f565b5b81356107ac848260208601610745565b91505092915050565b600080604083850312156107cc576107cb610665565b5b600083013567ffffffffffffffff8111156107ea576107e961066a565b5b6107f685828601610787565b925050602083013567ffffffffffffffff8111156108175761081661066a565b5b61082385828601610787565b9150509250929050565b600081519050919050565b600082825260208201905092915050565b60005b8381101561086757808201518184015260208101905061084c565b60008484015250505050565b600061087e8261082d565b6108888185610838565b9350610898818560208601610849565b6108a181610679565b840191505092915050565b600060208201905081810360008301526108c68184610873565b905092915050565b600073ffffffffffffffffffffffffffffffffffffffff82169050919050565b60006108f9826108ce565b9050919050565b610909816108ee565b811461091457600080fd5b50565b60008135905061092681610900565b92915050565b60006020828403121561094257610941610665565b5b600061095084828501610917565b91505092915050565b610962816108ee565b82525050565b600060208201905061097d6000830184610959565b92915050565b7f616c726561647920726567697374657265640000000000000000000000000000600082015250565b60006109b9601283610838565b91506109c482610983565b602082019050919050565b600060208201905081810360008301526109e8816109ac565b9050919050565b7f4e487b7100000000000000000000000000000000000000000000000000000000600052601160045260246000fd5b6000610a2982610627565b91507fffffffffffffffffffffffffffffffffffffffffffffffffffffffffffffffff8203610a5b57610a5a6109ef565b5b600182019050919050565b7f4e487b7100000000000000000000000000000000000000000000000000000000600052602260045260246000fd5b60006002820490506001821680610aad57607f821691505b602082108103610ac057610abf610a66565b5b50919050565b60008190508160005260206000209050919050565b60006020601f8301049050919050565b600082821b905092915050565b600060088302610b287fffffffffffffffffffffffffffffffffffffffffffffffffffffffffffffffff82610aeb565b610b328683610aeb565b95508019841693508086168417925050509392505050565b6000819050919050565b6000610b6f610b6a610b6584610627565b610b4a565b610627565b9050919050565b6000819050919050565b610b8983610b54565b610b9d610b9582610b76565b848454610af8565b825550505050565b600090565b610bb2610ba5565b610bbd818484610b80565b505050565b5b81811015610be157610bd6600082610baa565b600181019050610bc3565b5050565b601f821115610c2657610bf781610ac6565b610c0084610adb565b81016020851015610c0f578190505b610c23610c1b85610adb565b830182610bc2565b50505b505050565b600082821c905092915050565b6000610c4960001984600802610c2b565b1980831691505092915050565b6000610c628383610c38565b9150826002028217905092915050565b610c7b8261082d565b67ffffffffffffffff811115610c9457610c9361068a565b5b610c9e8254610a95565b610ca9828285610be5565b600060209050601f831160018114610cdc5760008415610cca578287015190505b610cd48582610c56565b865550610d3c565b601f198416610cea86610ac6565b60005b82811015610d1257848901518255600182019150602085019450602081019050610ced565b86831015610d2f5784890151610d2b601f891682610c38565b8355505b6001600288020188555050505b505050505050565b7f4e6f7420616c6c6f776564000000000000000000000000000000000000000000600082015250565b6000610d7a600b83610838565b9150610d8582610d44565b602082019050919050565b60006020820190508181036000830152610da981610d6d565b905091905056fea26469706673582212201b6fd61ddd104d1b142e7db3f705ebf6b4b550ce6345c504915c96652ce0e06064736f6c63430008120033",
  "linkReferences": {},
  "deployedLinkReferences": {}
}