{
  "_format": "hh-sol-artifact-1",
  "contractName": "cheer",
  "sourceName": "contracts/cheer.sol",
  "abi": [
    {
      "anonymous": false,
      "inputs": [
        {
          "indexed": false,
          "internalType": "address",
          "name": "from",
          "type": "address"
        },
        {
          "indexed": true,
          "internalType": "address",
          "name": "receiver",
          "type": "address"
        },
        {
          "indexed": false,
          "internalType": "uint256",
          "name": "amount",
          "type": "uint256"
        },
        {
          "indexed": false,
          "internalType": "string",
          "name": "message",
          "type": "string"
        },
        {
          "indexed": false,
          "internalType": "uint256",
          "name": "timestamp",
          "type": "uint256"
        },
        {
          "indexed": true,
          "internalType": "string",
          "name": "postid",
          "type": "string"
        }
      ],
      "name": "newCheer",
      "type": "event"
    },
    {
      "inputs": [
        {
          "internalType": "address payable",
          "name": "recipient",
          "type": "address"
        },
        {
          "internalType": "string",
          "name": "_postid",
          "type": "string"
        },
        {
          "internalType": "string",
          "name": "_message",
          "type": "string"
        }
      ],
      "name": "sendEth",
      "outputs": [],
      "stateMutability": "payable",
      "type": "function"
    }
  ],
  "bytecode": "0x608060405234801561001057600080fd5b506104c6806100206000396000f3fe60806040526004361061001e5760003560e01c806375bffae214610023575b600080fd5b61003d600480360381019061003891906102ad565b61003f565b005b8160405161004d91906103a9565b60405180910390208373ffffffffffffffffffffffffffffffffffffffff167fb17f1eb79d2a76d34399b201149b895a95e03f66e80265689b721a7e575949fc333485426040516100a19493929190610444565b60405180910390a38273ffffffffffffffffffffffffffffffffffffffff166108fc349081150290604051600060405180830381858888f193505050501580156100ef573d6000803e3d6000fd5b50505050565b6000604051905090565b600080fd5b600080fd5b600073ffffffffffffffffffffffffffffffffffffffff82169050919050565b600061013482610109565b9050919050565b61014481610129565b811461014f57600080fd5b50565b6000813590506101618161013b565b92915050565b600080fd5b600080fd5b6000601f19601f8301169050919050565b7f4e487b7100000000000000000000000000000000000000000000000000000000600052604160045260246000fd5b6101ba82610171565b810181811067ffffffffffffffff821117156101d9576101d8610182565b5b80604052505050565b60006101ec6100f5565b90506101f882826101b1565b919050565b600067ffffffffffffffff82111561021857610217610182565b5b61022182610171565b9050602081019050919050565b82818337600083830152505050565b600061025061024b846101fd565b6101e2565b90508281526020810184848401111561026c5761026b61016c565b5b61027784828561022e565b509392505050565b600082601f83011261029457610293610167565b5b81356102a484826020860161023d565b91505092915050565b6000806000606084860312156102c6576102c56100ff565b5b60006102d486828701610152565b935050602084013567ffffffffffffffff8111156102f5576102f4610104565b5b6103018682870161027f565b925050604084013567ffffffffffffffff81111561032257610321610104565b5b61032e8682870161027f565b9150509250925092565b600081519050919050565b600081905092915050565b60005b8381101561036c578082015181840152602081019050610351565b60008484015250505050565b600061038382610338565b61038d8185610343565b935061039d81856020860161034e565b80840191505092915050565b60006103b58284610378565b915081905092915050565b60006103cb82610109565b9050919050565b6103db816103c0565b82525050565b6000819050919050565b6103f4816103e1565b82525050565b600082825260208201905092915050565b600061041682610338565b61042081856103fa565b935061043081856020860161034e565b61043981610171565b840191505092915050565b600060808201905061045960008301876103d2565b61046660208301866103eb565b8181036040830152610478818561040b565b905061048760608301846103eb565b9594505050505056fea2646970667358221220fecf4cc699c6c5e149937c637eb701fd60fefd42a374ce610d3aa9837e9957b664736f6c63430008120033",
  "linkReferences": {},
  "deployedLinkReferences": {}
}