{
  "_format": "hh-sol-artifact-1",
  "contractName": "cheer",
  "sourceName": "contracts/cheer.sol",
  "abi": [
    {
      "anonymous": false,
      "inputs": [
        {
          "indexed": false,
          "internalType": "address",
          "name": "from",
          "type": "address"
        },
        {
          "indexed": false,
          "internalType": "address",
          "name": "receiver",
          "type": "address"
        },
        {
          "indexed": false,
          "internalType": "uint256",
          "name": "amount",
          "type": "uint256"
        },
        {
          "indexed": false,
          "internalType": "string",
          "name": "message",
          "type": "string"
        },
        {
          "indexed": false,
          "internalType": "uint256",
          "name": "timestamp",
          "type": "uint256"
        },
        {
          "indexed": false,
          "internalType": "string",
          "name": "keyword",
          "type": "string"
        }
      ],
      "name": "Transfer",
      "type": "event"
    },
    {
      "inputs": [
        {
          "internalType": "address payable",
          "name": "receiver",
          "type": "address"
        },
        {
          "internalType": "uint256",
          "name": "amount",
          "type": "uint256"
        },
        {
          "internalType": "string",
          "name": "message",
          "type": "string"
        },
        {
          "internalType": "string",
          "name": "keyword",
          "type": "string"
        }
      ],
      "name": "addToBlockchain",
      "outputs": [],
      "stateMutability": "nonpayable",
      "type": "function"
    },
    {
      "inputs": [],
      "name": "getTransactionCount",
      "outputs": [
        {
          "internalType": "uint256",
          "name": "",
          "type": "uint256"
        }
      ],
      "stateMutability": "view",
      "type": "function"
    }
  ],
  "bytecode": "0x608060405234801561001057600080fd5b5061059c806100206000396000f3fe608060405234801561001057600080fd5b50600436106100365760003560e01c80632e7700f01461003b578063cc2d7ead14610059575b600080fd5b610043610075565b60405161005091906100f7565b60405180910390f35b610073600480360381019061006e91906102f6565b61007e565b005b60008054905090565b600160008082825461009091906103c4565b925050819055507f416cfa4330a4565f45c2fd2dd4826a83a37443aba2ce6f79477c7355afac35fa3385858542866040516100d0969594939291906104f7565b60405180910390a150505050565b6000819050919050565b6100f1816100de565b82525050565b600060208201905061010c60008301846100e8565b92915050565b6000604051905090565b600080fd5b600080fd5b600073ffffffffffffffffffffffffffffffffffffffff82169050919050565b600061015182610126565b9050919050565b61016181610146565b811461016c57600080fd5b50565b60008135905061017e81610158565b92915050565b61018d816100de565b811461019857600080fd5b50565b6000813590506101aa81610184565b92915050565b600080fd5b600080fd5b6000601f19601f8301169050919050565b7f4e487b7100000000000000000000000000000000000000000000000000000000600052604160045260246000fd5b610203826101ba565b810181811067ffffffffffffffff82111715610222576102216101cb565b5b80604052505050565b6000610235610112565b905061024182826101fa565b919050565b600067ffffffffffffffff821115610261576102606101cb565b5b61026a826101ba565b9050602081019050919050565b82818337600083830152505050565b600061029961029484610246565b61022b565b9050828152602081018484840111156102b5576102b46101b5565b5b6102c0848285610277565b509392505050565b600082601f8301126102dd576102dc6101b0565b5b81356102ed848260208601610286565b91505092915050565b600080600080608085870312156103105761030f61011c565b5b600061031e8782880161016f565b945050602061032f8782880161019b565b935050604085013567ffffffffffffffff8111156103505761034f610121565b5b61035c878288016102c8565b925050606085013567ffffffffffffffff81111561037d5761037c610121565b5b610389878288016102c8565b91505092959194509250565b7f4e487b7100000000000000000000000000000000000000000000000000000000600052601160045260246000fd5b60006103cf826100de565b91506103da836100de565b92508282019050808211156103f2576103f1610395565b5b92915050565b600061040382610126565b9050919050565b610413816103f8565b82525050565b6000819050919050565b600061043e61043961043484610126565b610419565b610126565b9050919050565b600061045082610423565b9050919050565b600061046282610445565b9050919050565b61047281610457565b82525050565b600081519050919050565b600082825260208201905092915050565b60005b838110156104b2578082015181840152602081019050610497565b60008484015250505050565b60006104c982610478565b6104d38185610483565b93506104e3818560208601610494565b6104ec816101ba565b840191505092915050565b600060c08201905061050c600083018961040a565b6105196020830188610469565b61052660408301876100e8565b818103606083015261053881866104be565b905061054760808301856100e8565b81810360a083015261055981846104be565b905097965050505050505056fea264697066735822122057f3b8d96cad1fde2ffb668760f344a2d677994efaf4c223c6f51f0632c7a91264736f6c63430008120033",
  "linkReferences": {},
  "deployedLinkReferences": {}
}