{
  "_format": "hh-sol-artifact-1",
  "contractName": "cheer",
  "sourceName": "contracts/cheer.sol",
  "abi": [
    {
      "anonymous": false,
      "inputs": [
        {
          "indexed": false,
          "internalType": "address",
          "name": "from",
          "type": "address"
        },
        {
          "indexed": true,
          "internalType": "address",
          "name": "receiver",
          "type": "address"
        },
        {
          "indexed": false,
          "internalType": "uint256",
          "name": "amount",
          "type": "uint256"
        },
        {
          "indexed": false,
          "internalType": "string",
          "name": "message",
          "type": "string"
        },
        {
          "indexed": false,
          "internalType": "string",
          "name": "postid",
          "type": "string"
        },
        {
          "indexed": false,
          "internalType": "uint256",
          "name": "timestamp",
          "type": "uint256"
        }
      ],
      "name": "newCheer",
      "type": "event"
    },
    {
      "inputs": [
        {
          "internalType": "address payable",
          "name": "recipient",
          "type": "address"
        },
        {
          "internalType": "string",
          "name": "_pid",
          "type": "string"
        },
        {
          "internalType": "string",
          "name": "_message",
          "type": "string"
        }
      ],
      "name": "sendEth",
      "outputs": [],
      "stateMutability": "payable",
      "type": "function"
    }
  ],
  "bytecode": "0x608060405234801561001057600080fd5b50610474806100206000396000f3fe60806040526004361061001e5760003560e01c806375bffae214610023575b600080fd5b61003d60048036038101906100389190610299565b61003f565b005b8273ffffffffffffffffffffffffffffffffffffffff167fc815845aec7fb3abb46549d71634930719259f081f702dc61afc4554af55e725333484864260405161008d9594939291906103dd565b60405180910390a28273ffffffffffffffffffffffffffffffffffffffff166108fc349081150290604051600060405180830381858888f193505050501580156100db573d6000803e3d6000fd5b50505050565b6000604051905090565b600080fd5b600080fd5b600073ffffffffffffffffffffffffffffffffffffffff82169050919050565b6000610120826100f5565b9050919050565b61013081610115565b811461013b57600080fd5b50565b60008135905061014d81610127565b92915050565b600080fd5b600080fd5b6000601f19601f8301169050919050565b7f4e487b7100000000000000000000000000000000000000000000000000000000600052604160045260246000fd5b6101a68261015d565b810181811067ffffffffffffffff821117156101c5576101c461016e565b5b80604052505050565b60006101d86100e1565b90506101e4828261019d565b919050565b600067ffffffffffffffff8211156102045761020361016e565b5b61020d8261015d565b9050602081019050919050565b82818337600083830152505050565b600061023c610237846101e9565b6101ce565b90508281526020810184848401111561025857610257610158565b5b61026384828561021a565b509392505050565b600082601f8301126102805761027f610153565b5b8135610290848260208601610229565b91505092915050565b6000806000606084860312156102b2576102b16100eb565b5b60006102c08682870161013e565b935050602084013567ffffffffffffffff8111156102e1576102e06100f0565b5b6102ed8682870161026b565b925050604084013567ffffffffffffffff81111561030e5761030d6100f0565b5b61031a8682870161026b565b9150509250925092565b600061032f826100f5565b9050919050565b61033f81610324565b82525050565b6000819050919050565b61035881610345565b82525050565b600081519050919050565b600082825260208201905092915050565b60005b8381101561039857808201518184015260208101905061037d565b60008484015250505050565b60006103af8261035e565b6103b98185610369565b93506103c981856020860161037a565b6103d28161015d565b840191505092915050565b600060a0820190506103f26000830188610336565b6103ff602083018761034f565b818103604083015261041181866103a4565b9050818103606083015261042581856103a4565b9050610434608083018461034f565b969550505050505056fea2646970667358221220a69271513b230dc5e479812d7d5ae9e53877b3dc73769617734f4283198cc0b164736f6c63430008120033",
  "linkReferences": {},
  "deployedLinkReferences": {}
}