{
  "_format": "hh-sol-artifact-1",
  "contractName": "TransferContract",
  "sourceName": "contracts/TransferContract.sol",
  "abi": [
    {
      "anonymous": false,
      "inputs": [
        {
          "indexed": false,
          "internalType": "address",
          "name": "from",
          "type": "address"
        },
        {
          "indexed": false,
          "internalType": "address",
          "name": "receiver",
          "type": "address"
        },
        {
          "indexed": false,
          "internalType": "uint256",
          "name": "amount",
          "type": "uint256"
        },
        {
          "indexed": false,
          "internalType": "string",
          "name": "message",
          "type": "string"
        }
      ],
      "name": "Cheer",
      "type": "event"
    },
    {
      "inputs": [],
      "name": "getBalance",
      "outputs": [
        {
          "internalType": "uint256",
          "name": "",
          "type": "uint256"
        }
      ],
      "stateMutability": "view",
      "type": "function"
    },
    {
      "inputs": [],
      "name": "recipient",
      "outputs": [
        {
          "internalType": "address payable",
          "name": "",
          "type": "address"
        }
      ],
      "stateMutability": "view",
      "type": "function"
    },
    {
      "inputs": [
        {
          "internalType": "address payable",
          "name": "_recipient",
          "type": "address"
        }
      ],
      "name": "transfer",
      "outputs": [],
      "stateMutability": "nonpayable",
      "type": "function"
    },
    {
      "inputs": [
        {
          "internalType": "address payable",
          "name": "_recipient",
          "type": "address"
        },
        {
          "internalType": "uint256",
          "name": "_amount",
          "type": "uint256"
        },
        {
          "internalType": "string",
          "name": "_message",
          "type": "string"
        }
      ],
      "name": "transferNew",
      "outputs": [],
      "stateMutability": "nonpayable",
      "type": "function"
    },
    {
      "stateMutability": "payable",
      "type": "receive"
    }
  ],
  "bytecode": "0x608060405234801561001057600080fd5b506109e3806100206000396000f3fe6080604052600436106100435760003560e01c806312065fe01461004f5780631a6952301461007a57806366d003ac146100a35780637be9b82e146100ce5761004a565b3661004a57005b600080fd5b34801561005b57600080fd5b506100646100f7565b6040516100719190610433565b60405180910390f35b34801561008657600080fd5b506100a1600480360381019061009c91906104c0565b6100ff565b005b3480156100af57600080fd5b506100b861025b565b6040516100c591906104fc565b60405180910390f35b3480156100da57600080fd5b506100f560048036038101906100f09190610689565b61027f565b005b600047905090565b600073ffffffffffffffffffffffffffffffffffffffff168173ffffffffffffffffffffffffffffffffffffffff160361016e576040517f08c379a000000000000000000000000000000000000000000000000000000000815260040161016590610755565b60405180910390fd5b600047116101b1576040517f08c379a00000000000000000000000000000000000000000000000000000000081526004016101a8906107e7565b60405180910390fd5b806000806101000a81548173ffffffffffffffffffffffffffffffffffffffff021916908373ffffffffffffffffffffffffffffffffffffffff16021790555060008054906101000a900473ffffffffffffffffffffffffffffffffffffffff1673ffffffffffffffffffffffffffffffffffffffff166108fc479081150290604051600060405180830381858888f19350505050158015610257573d6000803e3d6000fd5b5050565b60008054906101000a900473ffffffffffffffffffffffffffffffffffffffff1681565b600073ffffffffffffffffffffffffffffffffffffffff168373ffffffffffffffffffffffffffffffffffffffff16036102ee576040517f08c379a00000000000000000000000000000000000000000000000000000000081526004016102e590610755565b60405180910390fd5b60008211610331576040517f08c379a000000000000000000000000000000000000000000000000000000000815260040161032890610853565b60405180910390fd5b7f49a9ceae92581d0cd8c7ff38078df454405f5f4fedb62ea2e413e46c9615710c338484846040516103669493929190610961565b60405180910390a1826000806101000a81548173ffffffffffffffffffffffffffffffffffffffff021916908373ffffffffffffffffffffffffffffffffffffffff16021790555060008054906101000a900473ffffffffffffffffffffffffffffffffffffffff1673ffffffffffffffffffffffffffffffffffffffff166108fc839081150290604051600060405180830381858888f19350505050158015610414573d6000803e3d6000fd5b50505050565b6000819050919050565b61042d8161041a565b82525050565b60006020820190506104486000830184610424565b92915050565b6000604051905090565b600080fd5b600080fd5b600073ffffffffffffffffffffffffffffffffffffffff82169050919050565b600061048d82610462565b9050919050565b61049d81610482565b81146104a857600080fd5b50565b6000813590506104ba81610494565b92915050565b6000602082840312156104d6576104d5610458565b5b60006104e4848285016104ab565b91505092915050565b6104f681610482565b82525050565b600060208201905061051160008301846104ed565b92915050565b6105208161041a565b811461052b57600080fd5b50565b60008135905061053d81610517565b92915050565b600080fd5b600080fd5b6000601f19601f8301169050919050565b7f4e487b7100000000000000000000000000000000000000000000000000000000600052604160045260246000fd5b6105968261054d565b810181811067ffffffffffffffff821117156105b5576105b461055e565b5b80604052505050565b60006105c861044e565b90506105d4828261058d565b919050565b600067ffffffffffffffff8211156105f4576105f361055e565b5b6105fd8261054d565b9050602081019050919050565b82818337600083830152505050565b600061062c610627846105d9565b6105be565b90508281526020810184848401111561064857610647610548565b5b61065384828561060a565b509392505050565b600082601f8301126106705761066f610543565b5b8135610680848260208601610619565b91505092915050565b6000806000606084860312156106a2576106a1610458565b5b60006106b0868287016104ab565b93505060206106c18682870161052e565b925050604084013567ffffffffffffffff8111156106e2576106e161045d565b5b6106ee8682870161065b565b9150509250925092565b600082825260208201905092915050565b7f496e76616c696420726563697069656e74206164647265737300000000000000600082015250565b600061073f6019836106f8565b915061074a82610709565b602082019050919050565b6000602082019050818103600083015261076e81610732565b9050919050565b7f436f6e747261637420686173206e6f2062616c616e636520746f207472616e7360008201527f6665720000000000000000000000000000000000000000000000000000000000602082015250565b60006107d16023836106f8565b91506107dc82610775565b604082019050919050565b60006020820190508181036000830152610800816107c4565b9050919050565b7f496e76616c696420616d6f756e74000000000000000000000000000000000000600082015250565b600061083d600e836106f8565b915061084882610807565b602082019050919050565b6000602082019050818103600083015261086c81610830565b9050919050565b600061087e82610462565b9050919050565b61088e81610873565b82525050565b6000819050919050565b60006108b96108b46108af84610462565b610894565b610462565b9050919050565b60006108cb8261089e565b9050919050565b60006108dd826108c0565b9050919050565b6108ed816108d2565b82525050565b600081519050919050565b60005b8381101561091c578082015181840152602081019050610901565b60008484015250505050565b6000610933826108f3565b61093d81856106f8565b935061094d8185602086016108fe565b6109568161054d565b840191505092915050565b60006080820190506109766000830187610885565b61098360208301866108e4565b6109906040830185610424565b81810360608301526109a28184610928565b90509594505050505056fea26469706673582212206de06d2f7fbb3ffc748f8fa466b6a5e0426aa40d7de6ac879adce61b9f74fc3064736f6c63430008120033",
  "linkReferences": {},
  "deployedLinkReferences": {}
}