{
  "_format": "hh-sol-artifact-1",
  "contractName": "test",
  "sourceName": "contracts/test.sol",
  "abi": [
    {
      "inputs": [],
      "stateMutability": "nonpayable",
      "type": "constructor"
    },
    {
      "inputs": [],
      "name": "getSignatureHash",
      "outputs": [
        {
          "internalType": "string",
          "name": "",
          "type": "string"
        }
      ],
      "stateMutability": "view",
      "type": "function"
    },
    {
      "inputs": [],
      "name": "getUserAddress",
      "outputs": [
        {
          "internalType": "address",
          "name": "",
          "type": "address"
        }
      ],
      "stateMutability": "view",
      "type": "function"
    },
    {
      "inputs": [],
      "name": "getUserCount",
      "outputs": [
        {
          "internalType": "uint256",
          "name": "",
          "type": "uint256"
        }
      ],
      "stateMutability": "view",
      "type": "function"
    },
    {
      "inputs": [],
      "name": "getUserName",
      "outputs": [
        {
          "internalType": "string",
          "name": "",
          "type": "string"
        }
      ],
      "stateMutability": "view",
      "type": "function"
    },
    {
      "inputs": [
        {
          "internalType": "string",
          "name": "_username",
          "type": "string"
        },
        {
          "internalType": "string",
          "name": "_sign",
          "type": "string"
        }
      ],
      "name": "regUser",
      "outputs": [],
      "stateMutability": "nonpayable",
      "type": "function"
    },
    {
      "inputs": [],
      "name": "usercount",
      "outputs": [
        {
          "internalType": "uint256",
          "name": "",
          "type": "uint256"
        }
      ],
      "stateMutability": "view",
      "type": "function"
    }
  ],
  "bytecode": "0x608060405234801561001057600080fd5b5060008081905550610d79806100276000396000f3fe608060405234801561001057600080fd5b50600436106100625760003560e01c80630f322c1e1461006757806312958f1c146100855780631ffed892146100a3578063b5cb15f7146100bf578063c127ae41146100dd578063ebc3eee8146100fb575b600080fd5b61006f610119565b60405161007c919061062c565b60405180910390f35b61008d61011f565b60405161009a91906106d7565b60405180910390f35b6100bd60048036038101906100b89190610842565b6101f1565b005b6100c76103fe565b6040516100d4919061062c565b60405180910390f35b6100e5610407565b6040516100f291906106d7565b60405180910390f35b6101036105a9565b60405161011091906108fb565b60405180910390f35b60005481565b6060600160003373ffffffffffffffffffffffffffffffffffffffff1673ffffffffffffffffffffffffffffffffffffffff168152602001908152602001600020600001805461016e90610945565b80601f016020809104026020016040519081016040528092919081815260200182805461019a90610945565b80156101e75780601f106101bc576101008083540402835291602001916101e7565b820191906000526020600020905b8154815290600101906020018083116101ca57829003601f168201915b5050505050905090565b600073ffffffffffffffffffffffffffffffffffffffff16600160003373ffffffffffffffffffffffffffffffffffffffff1673ffffffffffffffffffffffffffffffffffffffff16815260200190815260200160002060020160009054906101000a900473ffffffffffffffffffffffffffffffffffffffff1673ffffffffffffffffffffffffffffffffffffffff16146102c2576040517f08c379a00000000000000000000000000000000000000000000000000000000081526004016102b9906109c2565b60405180910390fd5b6000808154809291906102d490610a11565b919050555081600160003373ffffffffffffffffffffffffffffffffffffffff1673ffffffffffffffffffffffffffffffffffffffff16815260200190815260200160002060000190816103289190610c05565b5080600160003373ffffffffffffffffffffffffffffffffffffffff1673ffffffffffffffffffffffffffffffffffffffff16815260200190815260200160002060010190816103789190610c05565b5033600160003373ffffffffffffffffffffffffffffffffffffffff1673ffffffffffffffffffffffffffffffffffffffff16815260200190815260200160002060020160006101000a81548173ffffffffffffffffffffffffffffffffffffffff021916908373ffffffffffffffffffffffffffffffffffffffff1602179055505050565b60008054905090565b6060600160003373ffffffffffffffffffffffffffffffffffffffff1673ffffffffffffffffffffffffffffffffffffffff16815260200190815260200160002060020160009054906101000a900473ffffffffffffffffffffffffffffffffffffffff1673ffffffffffffffffffffffffffffffffffffffff163373ffffffffffffffffffffffffffffffffffffffff16146104d9576040517f08c379a00000000000000000000000000000000000000000000000000000000081526004016104d090610d23565b60405180910390fd5b600160003373ffffffffffffffffffffffffffffffffffffffff1673ffffffffffffffffffffffffffffffffffffffff168152602001908152602001600020600101805461052690610945565b80601f016020809104026020016040519081016040528092919081815260200182805461055290610945565b801561059f5780601f106105745761010080835404028352916020019161059f565b820191906000526020600020905b81548152906001019060200180831161058257829003601f168201915b5050505050905090565b6000600160003373ffffffffffffffffffffffffffffffffffffffff1673ffffffffffffffffffffffffffffffffffffffff16815260200190815260200160002060020160009054906101000a900473ffffffffffffffffffffffffffffffffffffffff16905090565b6000819050919050565b61062681610613565b82525050565b6000602082019050610641600083018461061d565b92915050565b600081519050919050565b600082825260208201905092915050565b60005b83811015610681578082015181840152602081019050610666565b60008484015250505050565b6000601f19601f8301169050919050565b60006106a982610647565b6106b38185610652565b93506106c3818560208601610663565b6106cc8161068d565b840191505092915050565b600060208201905081810360008301526106f1818461069e565b905092915050565b6000604051905090565b600080fd5b600080fd5b600080fd5b600080fd5b7f4e487b7100000000000000000000000000000000000000000000000000000000600052604160045260246000fd5b61074f8261068d565b810181811067ffffffffffffffff8211171561076e5761076d610717565b5b80604052505050565b60006107816106f9565b905061078d8282610746565b919050565b600067ffffffffffffffff8211156107ad576107ac610717565b5b6107b68261068d565b9050602081019050919050565b82818337600083830152505050565b60006107e56107e084610792565b610777565b90508281526020810184848401111561080157610800610712565b5b61080c8482856107c3565b509392505050565b600082601f8301126108295761082861070d565b5b81356108398482602086016107d2565b91505092915050565b6000806040838503121561085957610858610703565b5b600083013567ffffffffffffffff81111561087757610876610708565b5b61088385828601610814565b925050602083013567ffffffffffffffff8111156108a4576108a3610708565b5b6108b085828601610814565b9150509250929050565b600073ffffffffffffffffffffffffffffffffffffffff82169050919050565b60006108e5826108ba565b9050919050565b6108f5816108da565b82525050565b600060208201905061091060008301846108ec565b92915050565b7f4e487b7100000000000000000000000000000000000000000000000000000000600052602260045260246000fd5b6000600282049050600182168061095d57607f821691505b6020821081036109705761096f610916565b5b50919050565b7f616c726561647920726567697374657265640000000000000000000000000000600082015250565b60006109ac601283610652565b91506109b782610976565b602082019050919050565b600060208201905081810360008301526109db8161099f565b9050919050565b7f4e487b7100000000000000000000000000000000000000000000000000000000600052601160045260246000fd5b6000610a1c82610613565b91507fffffffffffffffffffffffffffffffffffffffffffffffffffffffffffffffff8203610a4e57610a4d6109e2565b5b600182019050919050565b60008190508160005260206000209050919050565b60006020601f8301049050919050565b600082821b905092915050565b600060088302610abb7fffffffffffffffffffffffffffffffffffffffffffffffffffffffffffffffff82610a7e565b610ac58683610a7e565b95508019841693508086168417925050509392505050565b6000819050919050565b6000610b02610afd610af884610613565b610add565b610613565b9050919050565b6000819050919050565b610b1c83610ae7565b610b30610b2882610b09565b848454610a8b565b825550505050565b600090565b610b45610b38565b610b50818484610b13565b505050565b5b81811015610b7457610b69600082610b3d565b600181019050610b56565b5050565b601f821115610bb957610b8a81610a59565b610b9384610a6e565b81016020851015610ba2578190505b610bb6610bae85610a6e565b830182610b55565b50505b505050565b600082821c905092915050565b6000610bdc60001984600802610bbe565b1980831691505092915050565b6000610bf58383610bcb565b9150826002028217905092915050565b610c0e82610647565b67ffffffffffffffff811115610c2757610c26610717565b5b610c318254610945565b610c3c828285610b78565b600060209050601f831160018114610c6f5760008415610c5d578287015190505b610c678582610be9565b865550610ccf565b601f198416610c7d86610a59565b60005b82811015610ca557848901518255600182019150602085019450602081019050610c80565b86831015610cc25784890151610cbe601f891682610bcb565b8355505b6001600288020188555050505b505050505050565b7f4e6f7420616c6c6f776564000000000000000000000000000000000000000000600082015250565b6000610d0d600b83610652565b9150610d1882610cd7565b602082019050919050565b60006020820190508181036000830152610d3c81610d00565b905091905056fea2646970667358221220d6e4be2ff1b95382545f93dbd9a64d58f1c2586a8c422b346c5566b8b8de0d9364736f6c63430008120033",
  "linkReferences": {},
  "deployedLinkReferences": {}
}